{
  "_format": "hh-sol-artifact-1",
  "contractName": "Escrow",
  "sourceName": "contracts/Escrow.sol",
  "abi": [
    {
      "anonymous": false,
      "inputs": [
        {
          "indexed": true,
          "internalType": "uint256",
          "name": "transactionId",
          "type": "uint256"
        }
      ],
      "name": "DisputeRaised",
      "type": "event"
    },
    {
      "anonymous": false,
      "inputs": [
        {
          "indexed": true,
          "internalType": "uint256",
          "name": "transactionId",
          "type": "uint256"
        },
        {
          "indexed": false,
          "internalType": "address",
          "name": "arbitrator",
          "type": "address"
        },
        {
          "indexed": false,
          "internalType": "address",
          "name": "winner",
          "type": "address"
        },
        {
          "indexed": false,
          "internalType": "uint256",
          "name": "amount",
          "type": "uint256"
        }
      ],
      "name": "DisputeResolved",
      "type": "event"
    },
    {
      "anonymous": false,
      "inputs": [
        {
          "indexed": true,
          "internalType": "uint256",
          "name": "transactionId",
          "type": "uint256"
        },
        {
          "indexed": false,
          "internalType": "address",
          "name": "buyer",
          "type": "address"
        },
        {
          "indexed": false,
          "internalType": "address",
          "name": "seller",
          "type": "address"
        },
        {
          "indexed": false,
          "internalType": "uint256",
          "name": "amount",
          "type": "uint256"
        }
      ],
      "name": "EscrowCreated",
      "type": "event"
    },
    {
      "anonymous": false,
      "inputs": [
        {
          "indexed": true,
          "internalType": "uint256",
          "name": "transactionId",
          "type": "uint256"
        },
        {
          "indexed": false,
          "internalType": "address",
          "name": "depositor",
          "type": "address"
        },
        {
          "indexed": false,
          "internalType": "uint256",
          "name": "amount",
          "type": "uint256"
        }
      ],
      "name": "FundsDeposited",
      "type": "event"
    },
    {
      "anonymous": false,
      "inputs": [
        {
          "indexed": true,
          "internalType": "uint256",
          "name": "transactionId",
          "type": "uint256"
        },
        {
          "indexed": false,
          "internalType": "address",
          "name": "receiver",
          "type": "address"
        },
        {
          "indexed": false,
          "internalType": "uint256",
          "name": "amount",
          "type": "uint256"
        }
      ],
      "name": "FundsReleased",
      "type": "event"
    },
    {
      "inputs": [
        {
          "internalType": "uint256",
          "name": "transactionId",
          "type": "uint256"
        }
      ],
      "name": "approveRelease",
      "outputs": [],
      "stateMutability": "nonpayable",
      "type": "function"
    },
    {
      "inputs": [
        {
          "internalType": "address payable",
          "name": "_seller",
          "type": "address"
        },
        {
          "internalType": "address",
          "name": "_arbitrator",
          "type": "address"
        }
      ],
      "name": "createEscrow",
      "outputs": [],
      "stateMutability": "payable",
      "type": "function"
    },
    {
      "inputs": [
        {
          "internalType": "uint256",
          "name": "transactionId",
          "type": "uint256"
        }
      ],
      "name": "depositFunds",
      "outputs": [],
      "stateMutability": "payable",
      "type": "function"
    },
    {
      "inputs": [
        {
          "internalType": "uint256",
          "name": "transactionId",
          "type": "uint256"
        }
      ],
      "name": "initiateDispute",
      "outputs": [],
      "stateMutability": "nonpayable",
      "type": "function"
    },
    {
      "inputs": [
        {
          "internalType": "uint256",
          "name": "transactionId",
          "type": "uint256"
        }
      ],
      "name": "releaseFunds",
      "outputs": [],
      "stateMutability": "nonpayable",
      "type": "function"
    },
    {
      "inputs": [
        {
          "internalType": "uint256",
          "name": "transactionId",
          "type": "uint256"
        },
        {
          "internalType": "address payable",
          "name": "winner",
          "type": "address"
        }
      ],
      "name": "resolveDispute",
      "outputs": [],
      "stateMutability": "nonpayable",
      "type": "function"
    },
    {
      "inputs": [],
      "name": "transactionCount",
      "outputs": [
        {
          "internalType": "uint256",
          "name": "",
          "type": "uint256"
        }
      ],
      "stateMutability": "view",
      "type": "function"
    },
    {
      "inputs": [
        {
          "internalType": "uint256",
          "name": "",
          "type": "uint256"
        }
      ],
      "name": "transactions",
      "outputs": [
        {
          "internalType": "address payable",
          "name": "buyer",
          "type": "address"
        },
        {
          "internalType": "address payable",
          "name": "seller",
          "type": "address"
        },
        {
          "internalType": "address",
          "name": "arbitrator",
          "type": "address"
        },
        {
          "internalType": "uint256",
          "name": "amount",
          "type": "uint256"
        },
        {
          "internalType": "enum Escrow.EscrowStatus",
          "name": "status",
          "type": "uint8"
        },
        {
          "internalType": "bool",
          "name": "buyerApproved",
          "type": "bool"
        },
        {
          "internalType": "bool",
          "name": "sellerApproved",
          "type": "bool"
        }
      ],
      "stateMutability": "view",
      "type": "function"
    }
  ],
  "bytecode": "0x608060405234801561001057600080fd5b50610d14806100206000396000f3fe60806040526004361061007b5760003560e01c806371635c031161004e57806371635c03146100f5578063834cc6fc146101155780639ace38c214610128578063b77bf600146101645761007b565b80630e33599d146100805780631bd2cea1146100a25780633b76594d146100c25780634d68282f146100d5575b600080fd5b34801561008c57600080fd5b506100a061009b3660046109f6565b610186565b005b3480156100ae57600080fd5b506100a06100bd3660046109de565b6102c9565b6100a06100d03660046109de565b6104a3565b3480156100e157600080fd5b506100a06100f03660046109de565b61056e565b34801561010157600080fd5b506100a06101103660046109de565b6106f8565b6100a06101233660046109a6565b6107c8565b34801561013457600080fd5b506101486101433660046109de565b61094d565b60405161015b9796959493929190610a1a565b60405180910390f35b34801561017057600080fd5b506101796109a0565b60405161015b9190610c77565b60008281526020819052604090206002015482906001600160a01b031633146101ca5760405162461bcd60e51b81526004016101c190610be5565b60405180910390fd5b600260008481526020819052604090206004015460ff16600281111561020057634e487b7160e01b600052602160045260246000fd5b1461021d5760405162461bcd60e51b81526004016101c190610bb5565b60008381526020819052604080822060048101805460ff191660011790556003015490516001600160a01b038516926108fc831502929190818181858888f19350505050158015610272573d6000803e3d6000fd5b50827f0db4b20cc119848dcb59f41527d8bc04945a341d861f69d3f693cd68cc532e6d3384600080888152602001908152602001600020600301546040516102bc93929190610a98565b60405180910390a2505050565b60008181526020819052604081206004015460ff1660028111156102fd57634e487b7160e01b600052602160045260246000fd5b1461031a5760405162461bcd60e51b81526004016101c190610b38565b6000818152602081905260409020546001600160a01b031633141561035c576000818152602081905260409020600401805461ff00191661010017905561039f565b6000818152602081905260409020600101546001600160a01b031633141561039f576000818152602081905260409020600401805462ff00001916620100001790555b600081815260208190526040902060040154610100900460ff1680156103dc575060008181526020819052604090206004015462010000900460ff165b156104a05760008181526020819052604080822060048101805460ff1916600190811790915581015460039091015491516001600160a01b03909116926108fc831502929190818181858888f1935050505015801561043f573d6000803e3d6000fd5b50600081815260208190526040908190206001810154600390910154915183927f6e3c6096795c8298a218b2cfb8bde42726ff7c9a3d27b4d3ba41ab7f74feb5fb92610497926001600160a01b039091169190610a7f565b60405180910390a25b50565b60008181526020819052604081206004015460ff1660028111156104d757634e487b7160e01b600052602160045260246000fd5b146104f45760405162461bcd60e51b81526004016101c190610b38565b600034116105145760405162461bcd60e51b81526004016101c190610abc565b60008181526020819052604081206003018054349290610535908490610c80565b92505081905550807fe030e47e27825a2ad1b19e4cf2e70bfbfb3124af275c7727a82b114ba7b29a853334604051610497929190610a7f565b60008181526020819052604090206001015481906001600160a01b031633146105a95760405162461bcd60e51b81526004016101c190610af1565b60008281526020819052604081206004015460ff1660028111156105dd57634e487b7160e01b600052602160045260246000fd5b146105fa5760405162461bcd60e51b81526004016101c190610b38565b60008281526020819052604090206004015462010000900460ff1615156001146106365760405162461bcd60e51b81526004016101c190610c30565b60008281526020819052604080822060048101805460ff1916600190811790915581015460039091015491516001600160a01b03909116926108fc831502929190818181858888f19350505050158015610694573d6000803e3d6000fd5b50600082815260208190526040908190206001810154600390910154915184927f6e3c6096795c8298a218b2cfb8bde42726ff7c9a3d27b4d3ba41ab7f74feb5fb926106ec926001600160a01b039091169190610a7f565b60405180910390a25050565b60008181526020819052604090205481906001600160a01b031633146107305760405162461bcd60e51b81526004016101c190610b6f565b60008281526020819052604081206004015460ff16600281111561076457634e487b7160e01b600052602160045260246000fd5b146107815760405162461bcd60e51b81526004016101c190610b38565b600082815260208190526040808220600401805460ff191660021790555183917f04901f83201c8724eadf084436db8aa391820bae6d11f9f78a17edb6f2eef3cf91a25050565b600034116107e85760405162461bcd60e51b81526004016101c190610abc565b600180549060006107f883610c98565b90915550506040805160e0810182523381526001600160a01b038481166020830152831691810191909152346060820152608081016000815260006020808301829052604092830182905260018054835282825291839020845181546001600160a01b03199081166001600160a01b0392831617835592860151828501805485169183169190911790559385015160028083018054909416919095161790915560608401516003820155608084015160048201805492949193909260ff19169184908111156108d757634e487b7160e01b600052602160045260246000fd5b021790555060a08201516004909101805460c0909301511515620100000262ff0000199215156101000261ff001990941693909317919091169190911790556001546040517f9405ad0a6208539879349284d71265479b1623846f70303da1f9890d6e8c10a7906106ec90339086903490610a98565b600060208190529081526040902080546001820154600283015460038401546004909401546001600160a01b039384169492841693909116919060ff808216916101008104821691620100009091041687565b60015481565b600080604083850312156109b8578182fd5b82356109c381610cc9565b915060208301356109d381610cc9565b809150509250929050565b6000602082840312156109ef578081fd5b5035919050565b60008060408385031215610a08578182fd5b8235915060208301356109d381610cc9565b6001600160a01b0388811682528781166020830152861660408201526060810185905260e0810160038510610a5f57634e487b7160e01b600052602160045260246000fd5b608082019490945291151560a0830152151560c090910152949350505050565b6001600160a01b03929092168252602082015260400190565b6001600160a01b039384168152919092166020820152604081019190915260600190565b6020808252818101527f416d6f756e74206d7573742062652067726561746572207468616e207a65726f604082015260600190565b60208082526027908201527f4f6e6c79207468652073656c6c65722063616e20706572666f726d20746869736040820152661030b1ba34b7b760c91b606082015260800190565b60208082526019908201527f457363726f77206973206e6f7420696e2070726f677265737300000000000000604082015260600190565b60208082526026908201527f4f6e6c79207468652062757965722063616e20706572666f726d20746869732060408201526530b1ba34b7b760d11b606082015260800190565b602080825260169082015275115cd8dc9bddc81a5cc81b9bdd08191a5cdc1d5d195960521b604082015260600190565b6020808252602b908201527f4f6e6c79207468652061726269747261746f722063616e20706572666f726d2060408201526a3a3434b99030b1ba34b7b760a91b606082015260800190565b60208082526027908201527f53656c6c657220686173206e6f7420617070726f766564207468652072656c65604082015266185cd9481e595d60ca1b606082015260800190565b90815260200190565b60008219821115610c9357610c93610cb3565b500190565b6000600019821415610cac57610cac610cb3565b5060010190565b634e487b7160e01b600052601160045260246000fd5b6001600160a01b03811681146104a057600080fdfea2646970667358221220af5f8f2c914b1b83377828e3f12c13ed0f3ef9a33c49e75820c04b85fd625a2264736f6c63430008000033",
  "linkReferences": {},
  "deployedLinkReferences": {}
}